:10000000020003758182120116E582600302006F0F
:10001000780079007A007B007C007D00EC4D601C4C
:1000200088828983E493A3A882A9838A828B83F040
:10003000A3AA82AB831CBCFFE31D80E07582007520
:1000400083007C007D00EC4D600AE4F0A31CBCFF43
:10005000F51D80F27582007583007C007D00EC4DFB
:10006000600AE4F0A31CBCFFF51D80F2120101122E
:10007000105C80FE427974653A2025690A00427559
:1000800074746F6E20312050726573736564004222
:100090007574746F6E2032205072657373656400DE
:1000A000427574746F6E203320507265737365648B
:1000B0003A20436F6D6520436C6F7365720044692D
:1000C0007374616E6365206E6F7720697320256697
:1000D000200A00427574746F6E203420507265736C
:1000E0007365643A20476F204675727468657200C4
:1000F000427574746F6E2035205072657373656439
:10010000007561007562007563C875644222C001A4
:100110007901D001222275E60075E70075D60075D9
:10012000D70075CE0075CF0075C60075C700758EF7
:100130001175BE0075BF00438780759852759B008E
:10014000759AFA759B1EC28C75890175F400758CC1
:100150000075F200758A00D28CD2A9D2AF752E003C
:1001600075820022AA8253C47F8AC5748055C4FA5E
:10017000BA80F822AA8253C3BF75C33F43C340C2AB
:100180009474184AF5821201647A0A7B001ABAFF45
:10019000011BEA4B70F7758255120164743F55C517
:1001A000FB7A00758255C002C003120164D003D0EF
:1001B00002D29474F055C5FC7D00EC2AFAED3BC4E4
:1001C000CAC4540F6ACA540FCA6ACA8A82F5832203
:1001D0007A707B17C3E49AE464808BF063F08095B7
:1001E000F050071ABAFFED1B80EA22AA82AB83C344
:1001F000E49AE464808BF063F08095F050071ABABB
:10020000FFED1B80EA227A287B23C3E49AE4648012
:100210008BF063F08095F050071ABAFFED1B80EA6F
:10022000227AB87B0BC3E49AE464808BF063F0809D
:1002300095F050071ABAFFED1B80EA2285826F8580
:1002400083707C007D00C004C005120206D005D07A
:10025000047E007F00C3EE9408EF64809480400326
:10026000020322856D82C004C005C006C0071201CA
:100270007412146CA882A983AAF0FBC000C001C04C
:1002800002C00390666675F09E744012151DAA8226
:10029000AB83A8F0F9E58124FCF581E4C0E074C0EB
:1002A000C0E0747FC0E07444C0E08A828B8388F031
:1002B000E9121673AA82AB83A8F0F9E58124FCF554
:1002C000818A828B8388F0E91214B9AA82AB83D029
:1002D00007D006D005D004C3E56F9AE57064808B23
:1002E000F063F08095F050158EF005F07A017B00F8
:1002F0008006EA2AFAEB33FBD5F0F780047A007B1C
:1003000000EA4204EB4205C004C005C006C0071263
:1003100001D0D007D006D005D0040EBE00010F02D8
:100320000255C004C005120206D005D0048C828D8F
:100330008322C290D291C292D2937A007B00C3EA08
:10034000940BEB6480948050277C107D27C002C002
:1003500003C004C00512010ED005D004D003D002A2
:100360001CBCFF011DEC4D70E40ABA00D10B80CE1D
:10037000C290C291C292C29322C290C291D292C242
:10038000937A007B00C3EA9404EB64809480502746
:100390007C107D27C002C003C004C00512010ED02E
:1003A00005D004D003D0021CBCFF011DEC4D70E44D
:1003B0000ABA00D10B80CED290C291C292D2937A67
:1003C000007B00C3EA9407EB6480948050277C1084
:1003D0007D27C002C003C004C00512010ED005D0A5
:1003E00004D003D0021CBCFF011DEC4D70E40ABA1E
:1003F00000D10B80CEC290D291C292C2937A007B80
:1004000000C3EA9404EB6480948050277C107D271D
:10041000C002C003C004C00512010ED005D004D034
:1004200003D0021CBCFF011DEC4D70E40ABA00D1E0
:100430000B80CED290C291C292D2937A007B00C33D
:10044000EA9404EB6480948050277C107D27C002DE
:10045000C003C004C00512010ED005D004D003D0E3
:10046000021CBCFF011DEC4D70E40ABA00D10B80E8
:10047000CEC290C291C292C29322C290C291C29245
:10048000C29322D290C291C292D293227A0179F879
:1004900078B8D8FED9FADAF62290000122AA82AB07
:1004A00083ACF0857182C002C003C00412017412D3
:1004B000146CAD82AE83AFF0F8C005C006C007C0B3
:1004C0000090666675F09E744012151DAD82AE8375
:1004D000AFF0F8E58124FCF581E4C0E074C0C0E031
:1004E000747FC0E07444C0E08D828E838FF0E81288
:1004F0001673AD82AE83AFF0F8E58124FCF581D0B0
:1005000004D003D0028A828B838CF0ED12164FA3A5
:10051000EE12164FA3EF12164FA3E802164F757195
:1005200001E4F57290002275F04012049DE4F5712B
:10053000F57290002675F04002049D7401B55F06C7
:10054000E4B560028003020B9074CDC0E074CCC0AF
:10055000E0744CC0E0743EC0E08526828527838528
:1005600028F0E5291215C0AA82AB83ACF0FDE58125
:1005700024FCF581C02AC02BC02CC02D8A828B831D
:100580008CF0ED1214EDAA82E58124FCF581EA607D
:100590005074CDC0E074CCC0E0744CC0E0743EC078
:1005A000E08526828527838528F0E5291215C0AAD3
:1005B00082AB83ACF0FDE58124FCF581C022C02331
:1005C000C024C0258A828B838CF0ED1214EDAA82A0
:1005D000E58124FCF581EA6008C290D291C292C202
:1005E0009374CDC0E074CCC0E0744CC0E0743EC0E5
:1005F000E08522828523838524F0E5251215C0AA93
:1006000082AB83ACF0FDE58124FCF581C02AC02BD0
:10061000C02CC02D8A828B838CF0ED1214EDAA823F
:10062000E58124FCF581EA605074CDC0E074CCC053
:10063000E0744CC0E0743EC0E0852282852383854F
:1006400024F0E5251215C0AA82AB83ACF0FDE5814C
:1006500024FCF581C026C027C028C0298A828B834C
:100660008CF0ED1214EDAA82E58124FCF581EA609C
:1006700008C290C291D292C29374CDC0E074CCC033
:10068000E0744CC0E0743EC0E085268285278385F7
:1006900028F0E529121668AA82AB83ACF0FDE5814B
:1006A00024FCF581C02AC02BC02CC02D8A828B83EC
:1006B0008CF0ED121478AA82E58124FCF581EA60C1
:1006C0007B74CDC0E074CCC0E0744CC0E0743EC01C
:1006D000E08522828523838524F0E5251215C0AAB2
:1006E00082AB83ACF0FDE58124FCF581748FC0E022
:1006F00074C2C0E07475C0E0743CC0E08A828B8331
:100700008CF0ED121668AA82AB83ACF0FDE5812473
:10071000FCF581C002C003C004C005852682852780
:10072000838528F0E529121478AA82E58124FCF556
:1007300081EA6008D290C291C292C29374CDC0E0A7
:1007400074CCC0E0744CC0E0743EC0E08522828569
:1007500023838524F0E525121668AA82AB83ACF0CA
:10076000FDE58124FCF581C02AC02BC02CC02D8A58
:10077000828B838CF0ED121478AA82E58124FCF53B
:1007800081EA607B74CDC0E074CCC0E0744CC0E002
:10079000743EC0E08526828527838528F0E52912EE
:1007A00015C0AA82AB83ACF0FDE58124FCF5817411
:1007B0008FC0E074C2C0E07475C0E0743CC0E08AD1
:1007C000828B838CF0ED121668AA82AB83ACF0FDAD
:1007D000E58124FCF581C002C003C004C005852268
:1007E000828523838524F0E525121478AA82E58189
:1007F00024FCF581EA6008C290C291C292D293743F
:10080000CDC0E074CCC0E0744CC0E0743EC0E08564
:1008100022828523838524F0E525121668AA82ABFF
:1008200083ACF0FDE58124FCF581C02AC02BC02CEF
:10083000C02D8A828B838CF0ED1214EDAA82E581A3
:1008400024FCF581EA700302092D74CDC0E074CC5C
:10085000C0E0744CC0E0743EC0E0852682852783EA
:100860008528F0E529121668AA82AB83ACF0FDE575
:100870008124FCF581C02AC02BC02CC02D8A828B1C
:10088000838CF0ED1214EDAA82E58124FCF581EA57
:10089000700302092DC026C027C028C029852282E6
:1008A0008523838524F0E525121668AA82AB83ACE4
:1008B000F0FDE58124FCF58174CDC0E074CCC0E08E
:1008C000744CC0E0743EC0E08A828B838CF0ED12E1
:1008D00014EDAA82E58124FCF581EA7048C022C0AB
:1008E00023C024C0258526828527838528F0E52915
:1008F000121668AA82AB83ACF0FDE58124FCF58179
:1009000074CDC0E074CCC0E0744CC0E0743EC0E074
:100910008A828B838CF0ED1214EDAA82E58124FC8F
:10092000F581EA6008C290D291D292C29374CDC090
:10093000E074CCC0E0744CC0E0743EC0E08522821C
:100940008523838524F0E525121668AA82AB83AC43
:10095000F0FDE58124FCF581C02AC02BC02CC02D00
:100960008A828B838CF0ED121478AA82E58124FCB4
:10097000F581EA7003020A5374CDC0E074CCC0E084
:10098000744CC0E0743EC0E08526828527838528AC
:10099000F0E529121668AA82AB83ACF0FDE581244C
:1009A000FCF581C02AC02BC02CC02D8A828B838C81
:1009B000F0ED121478AA82E58124FCF581EA700337
:1009C000020A53C026C027C028C029852282852359
:1009D000838524F0E525121668AA82AB83ACF0FD6E
:1009E000E58124FCF5817466C0E0C0E0C0E0743E9F
:1009F000C0E08A828B838CF0ED1214EDAA82E5812F
:100A000024FCF581EA7044C022C023C024C025859F
:100A100026828527838528F0E529121668AA82ABED
:100A200083ACF0FDE58124FCF5817466C0E0C0E094
:100A3000C0E0743EC0E08A828B838CF0ED1214ED2E
:100A4000AA82E58124FCF581EA6008D290C291C2B5
:100A500092D29374CDC0E074CCC0E0744CC0E0740A
:100A60003EC0E0852A82852B83852CF0E52D121669
:100A700068AA82AB83ACF0FDE58124FCF581C0025D
:100A8000C003C004C0058522828523838524F0E548
:100A900025121478AA82E58124FCF581EA700122EE
:100AA00074CDC0E074CCC0E0744CC0E0743EC0E0D3
:100AB000852A82852B83852CF0E52D1215C0AA820C
:100AC000AB83ACF0FDE58124FCF581C002C003C01E
:100AD00004C0058522828523838524F0E525121430
:100AE000EDAA82E58124FCF581EA70012274CDC073
:100AF000E074CCC0E0744CC0E0743EC0E0852A8253
:100B0000852B83852CF0E52D121668AA82AB83AC69
:100B1000F0FDE58124FCF581C002C003C004C005DE
:100B20008526828527838528F0E529121478AA82F4
:100B3000E58124FCF581EA70012274CDC0E074CC1B
:100B4000C0E0744CC0E0743EC0E0852A82852B83EF
:100B5000852CF0E52D1215C0AA82AB83ACF0FDE523
:100B60008124FCF581C002C003C004C00585268233
:100B70008527838528F0E5291214EDAA82E58124D2
:100B8000FCF581EA700122C290C291C292C2932206
:100B9000E55F456060012274CDC0E074CCC0E074B4
:100BA0004CC0E0743EC0E08522828523838524F01A
:100BB000E525121668AA82AB83ACF0FDE58124FC22
:100BC000F581C02AC02BC02CC02D8A828B838CF06B
:100BD000ED121478AA82E58124FCF581EA6029C02F
:100BE00026C027C028C0298522828523838524F03A
:100BF000E525121478AA82E58124FCF581EA6008D3
:100C0000C290C291C292D29374CDC0E074CCC0E0C5
:100C1000744CC0E0743EC0E0852682852783852819
:100C2000F0E529121668AA82AB83ACF0FDE58124B9
:100C3000FCF581C02AC02BC02CC02D8A828B838CEE
:100C4000F0ED121478AA82E58124FCF581EA60298E
:100C5000C022C023C024C0258526828527838528FD
:100C6000F0E529121478AA82E58124FCF581EA6076
:100C700008D290C291C292C29374CDC0E074CCC02D
:100C8000E0744CC0E0743EC0E085228285238385F9
:100C900024F0E5251215C0AA82AB83ACF0FDE581F6
:100CA00024FCF581C02AC02BC02CC02D8A828B83E6
:100CB0008CF0ED1214EDAA82E58124FCF581EA6046
:100CC00029C026C027C028C0298522828523838584
:100CD00024F0E5251214EDAA82E58124FCF581EAD1
:100CE0006008C290C291D292C29374CDC0E074CC1D
:100CF000C0E0744CC0E0743EC0E085268285278346
:100D00008528F0E5291215C0AA82AB83ACF0FDE579
:100D10008124FCF581C02AC02BC02CC02D8A828B77
:100D2000838CF0ED1214EDAA82E58124FCF581EAB2
:100D30006029C022C023C024C02585268285278340
:100D40008528F0E5291214EDAA82E58124FCF581BD
:100D5000EA6008C290D291C292C29374CDC0E0748E
:100D6000CCC0E0744CC0E0743EC0E0852282852394
:100D7000838524F0E5251215C0AA82AB83ACF0FD73
:100D8000E58124FCF581C02AC02BC02CC02D8A82AD
:100D90008B838CF0ED121478AA82E58124FCF58116
:100DA000EA7003020E3E74CDC0E074CCC0E0744C17
:100DB000C0E0743EC0E08526828527838528F0E563
:100DC000291215C0AA82AB83ACF0FDE58124FCF5A5
:100DD00081C02AC02BC02CC02D8A828B838CF0ED61
:100DE000121478AA82E58124FCF581EA6050C026BD
:100DF000C027C028C0298522828523838524F0E569
:100E000025121668AA82AB83ACF0FDE58124FCF5BF
:100E10008174CDC0E074CCC0E0744CC0E0743EC0BE
:100E2000E08A828B838CF0ED1214EDAA82E5812496
:100E3000FCF581EA6008C290D291D292C29374CD3F
:100E4000C0E074CCC0E0744CC0E0743EC0E08522C9
:100E5000828523838524F0E5251215C0AA82AB8301
:100E6000ACF0FDE58124FCF581C02AC02BC02CC06C
:100E70002D8A828B838CF0ED1214EDAA82E58124F9
:100E8000FCF581EA7003020F2174CDC0E074CCC080
:100E9000E0744CC0E0743EC0E085268285278385DF
:100EA00028F0E5291215C0AA82AB83ACF0FDE581DC
:100EB00024FCF581C02AC02BC02CC02D8A828B83D4
:100EC0008CF0ED1214EDAA82E58124FCF581EA6034
:100ED00050C026C027C028C029852282852383854B
:100EE00024F0E525121668AA82AB83ACF0FDE581FB
:100EF00024FCF58174CDC0E074CCC0E0744CC0E03B
:100F0000743EC0E08A828B838CF0ED1214EDAA82CD
:100F1000E58124FCF581EA6008D290C291C292D2A8
:100F20009374CDC0E074CCC0E0744CC0E0743EC09B
:100F3000E0852A82852B83852CF0E52D121668AA80
:100F400082AB83ACF0FDE58124FCF581C002C003D7
:100F5000C004C0058522828523838524F0E52512FF
:100F60001478AA82E58124FCF581EA70012274CD0F
:100F7000C0E074CCC0E0744CC0E0743EC0E0852A90
:100F800082852B83852CF0E52D1215C0AA82AB83B8
:100F9000ACF0FDE58124FCF581C002C003C004C0B3
:100FA000058522828523838524F0E5251214EDAA88
:100FB00082E58124FCF581EA70012274CDC0E074E1
:100FC000CCC0E0744CC0E0743EC0E0852A82852B22
:100FD00083852CF0E52D121668AA82AB83ACF0FD58
:100FE000E58124FCF581C002C003C004C00585264C
:100FF000828527838528F0E529121478AA82E58165
:1010000024FCF581EA605474CDC0E074CCC0E07477
:101010004CC0E0743EC0E0852A82852B83852CF08D
:10102000E52D1215C0AA82AB83ACF0FDE58124FC4E
:10103000F581C002C003C004C005852682852783D0
:101040008528F0E5291214EDAA82E58124FCF581BA
:10105000EA6008C290C291C292C29322752A9A7520
:101060002B99752C39752D40755F01E4F560C2B57B
:101070007A007B00758201C002C003120174758280
:101080000112017412146CAC82AD83AEF0FFC00487
:10109000C005C006C00790666675F09E74401215C4
:1010A0001DAC82AD83AEF0FFE58124FCF581E4C088
:1010B000E074C0C0E0747FC0E07444C0E08C828DF6
:1010C000838EF0EF121673AC82AD83AEF0FFE58134
:1010D00024FCF58174CDC0E074CCC0E0744CC0E059
:1010E000743EC0E08C828D838EF0EF1214EDAC82E2
:1010F000E58124FCF581D003D002EC700302146377
:10110000C002C00312047A12022175820112017416
:1011100012146CAC82AD83AEF0FFC004C005C006F3
:10112000C00790666675F09E744012151DAC82ADC6
:1011300083AEF0FFE58124FCF581E4C0E074C0C01B
:10114000E0747FC0E07444C0E08C828D838EF0EF49
:10115000121673AC82AD83AEF0FFE58124FCF581FD
:1011600074CDC0E074CCC0E0744CC0E0743EC0E00C
:101170008C828D838EF0EF1214EDAC82E58124FC1D
:10118000F581D003D002EC6031756D01E4F56E900D
:10119000000012023CAA82AB83C002C003C002C09E
:1011A000037474C0E07400C0E07480C0E012162EB6
:1011B000E58124FBF581D003D002BAFB05BB000218
:1011C000800EBAFD05BB00028006BAF939BB0036B5
:1011D000747EC0E07400C0E07480C0E012162E156A
:1011E00081158115811203327401B55F06E4B56083
:1011F0000280028008E4F55FF560021070755F01FF
:10120000E4F560021070BA1805BB0002800EBA8CBB
:1012100005BB00028006BA881EBB001B748FC0E0AD
:101220007400C0E07480C0E012162E15811581157F
:1012300081120379021070BA3705BB0002801BBA15
:10124000B105BB00028013BA6705BB0002800BBA70
:101250002705BB0002800302133574A0C0E07400B0
:10126000C0E07480C0E012162E1581158115811220
:10127000047A749AC0E07499C0E07439C0E0744094
:10128000C0E0852A82852B83852CF0E52D1214A8D9
:10129000AC82E58124FCF581EC600E752A00752B8B
:1012A00000752C70752D408069E4C0E0C0E07420AA
:1012B000C0E07440C0E0852A82852B83852CF0E550
:1012C0002D1214A8AC82E58124FCF581EC600E752A
:1012D0002A9A752B99752C39752D40803574CDC09F
:1012E000E074CCC0E0748CC0E0743FC0E0852A821A
:1012F000852B83852CF0E52D1214A8AC82E5812482
:10130000FCF581EC600C752A00752B00752C20759E
:101310002D40C02AC02BC02CC02D74BEC0E074006C
:10132000C0E07480C0E012162EE58124F9F5811228
:10133000010E021070BAC605BB0002801BBAE2059E
:10134000BB00028013BAE605BB0002800BBA86051B
:10135000BB0002800302143074D3C0E07400C0E00C
:101360007480C0E012162E15811581158112047A41
:10137000E4C0E0C0E07470C0E07440C0E0852A8240
:10138000852B83852CF0E52D1214A8AC82E58124F1
:10139000FCF581EC600E752A9A752B99752C3975C0
:1013A0002D408069749AC0E07499C0E07439C0E03F
:1013B0007440C0E0852A82852B83852CF0E52D12B0
:1013C00014A8AC82E58124FCF581EC600E752A003E
:1013D000752B00752C20752D408032E4C0E0C0E0F4
:1013E0007420C0E07440C0E0852A82852B83852C60
:1013F000F0E52D1214A8AC82E58124FCF581EC60A7
:101400000C752ACD752BCC752C8C752D3FC02AC040
:101410002BC02CC02D74BEC0E07400C0E07480C02E
:10142000E012162EE58124F9F58112010E021070EA
:10143000BAF105BB00028013BA7105BB0002800B34
:10144000BA1E05BB0002800302107074F0C0E07485
:1014500000C0E07480C0E012162E15811581158140
:1014600002107012051E12053B021070E4AC83AB33
:1014700082FAF9748E02179BFFA88118181217C3FD
:10148000D2D133E6400730E70B7582012220E70610
:1014900075820022C2D11217A5E97003F5822230AD
:1014A000D101B3E433F58222FFA88118181217C3C3
:1014B0001217A5E96401F582221217EE700AE5827F
:1014C000458345F0700122E430D112F4700BE5F051
:1014D000F47006E58330E7012290800022700AE56F
:1014E000F07006E58320E70122907FFF22FFA881AC
:1014F00018181217C3D2D133E6400730E70B7582B4
:10150000002220E70675820122C2D11217A5E970D8
:1015100003F5822220D101B3E433F582221218CBE5
:10152000BC000302186AEF60FA30D502B2D1E5833D
:10153000B4FF03021880E582B4FF030218802583FC
:1015400040072482400B02186A24831450030218B7
:1015500080F582EA8DF0A4A8F0EA8EF0A428F8E4E1
:1015600035F0F9EB8DF0A428E935F0F9E433CA8FB2
:10157000F0A429F9EA35F0FAEBF88EF0A429F9EA9B
:1015800035F0FAE433FBEC8DF0A429F9EA35F0FAF2
:10159000E43BFBE88FF0A42AFAEB35F0FBE433CC14
:1015A000FD8EF0A42AFAEB35F0FBE43CFCED8FF065
:1015B000A42BFBEC35F0FC20E70312189802184925
:1015C0001218CB7900E583B58202800D5003121802
:1015D000F9E583C39582121913E5D0C465D020E1E3
:1015E00017EA2DFAEB3EFBEC3FFC5009740112198F
:1015F00013EC4480FC021849C3EA9DFAEB9EFBEC15
:101600009FFC500FC3E499F9E49AFAE49BFBE49C35
:10161000FCB2D11218980218490222E2858218857C
:10162000831985F01A85091B901619021D35C0080B
:10163000858108E50824FBF51BE50824FBF88618DE
:1016400008861908861A901619121D35D00822200E
:10165000F71030F6118883A88220F507F6A8837565
:10166000830022F280F7F022A8811818C6B2E7C6DC
:101670000215C01218CB30D502B2D1BF0009BC0090
:101680000302188D021880BC000302186AE583B4B7
:10169000FF0BE582B4FF0302188D02186AE582B4DD
:1016A000FF03021880C395835007247F400B021864
:1016B0006A2480145003021880C0E0E4CCCBCAF93D
:1016C0008D1C8E1D8F1EEF54F0C4F51F758306858B
:1016D0001FF0EB84F582E9C4F9EAC4FAEBC4FBEC31
:1016E000540FC47803D6FC18EBD6FB18EAD6FA855B
:1016F00082F0EDA4A8F0FD8582F0EEA428FEE4358A
:10170000F0F88582F0EFA428FFE435F0F8E99DF9C0
:10171000EA9EFAEB9FFBEC98FCAD1CAE1DAF1E30B1
:10172000E7101582E92DF9EA3EFAEB3FFBE43CFCB9
:1017300080EDC082D58398C3E933F9EA33FAEB33FD
:10174000FBEC33FCC3E99DEA9EEB9FEC9400B3E411
:1017500013F9D002D0E0C44AFAD003D0E0C44BFB66
:10176000D004D0E0F5F0540FC44CFCD08215823088
:10177000F40FD3EC13FCEB13FBEA13FAE913F905AE
:1017800082E930E70A74012AFAE43BFBE43CFC02FC
:101790001861FCABF0AA83A982749EC2D1F58212B3
:1017A00018980218497901AA82E68F82B582131827
:1017B000E6B5F00E18E6B5830918E68A82B582020E
:1017C000790022B4800FE5F0700AE5837006E582A7
:1017D00070027F00EFB6801518B6001018B6000B27
:1017E00018B6000608080876002208080822122207
:1017F000F7C3749E95824039790012191330D126AF
:10180000E9F42401F582EAF43400F583EBF43400C2
:10181000F5F0ECF43400700AE582458345F0700180
:1018200022E430E70F22EC20E71489828A838BF0D0
:101830002230D10AE4F582F583F5F074802274FF3A
:10184000F582F583F5F0747F22B98003EA13B34083
:1018500010EA2401FAE43BFBE43CFC50047C8005E4
:1018600082BC000EBB000BBA0008E4F5F0F583F56E
:101870008222A2D1E582138CF092F78B838A822296
:10188000E4F583F58275F080F4A2D11322E4F583A8
:10189000F58275F0C0747F227804EC7011E5822423
:1018A000F8500AF582E4C9CACBFCD8EF22EC7820C4
:1018B000058220E713D5820122C3E933F9EA33FA1E
:1018C000EB33FBEC33FCD8EA158222AA82AB83A26D
:1018D000F73392D16002D2F7F582ACF0E58124F9BA
:1018E000F8E6FD08E6FE0886F008E6A2F73392D592
:1018F0006002D2F7F583AFF022E582C583F582A2BC
:10190000D133A2D592D11392D5ECCFFCEBCEFBEA2A
:10191000CDFA226040F82582500274FFF582E82457
:10192000F8501ECCCBCAF9E4CC24F85014CBCAF939
:10193000E4CB24F8500BCAF9E4CA24F85003790028
:101940002224086010F8C3EC13FCEB13FBEA13FA33
:10195000E913F9D8F122AA827467C0E07419C0E0D3
:10196000C00AC00B8A82220511E4B51102051222B9
:10197000AA8274302AFA24C6500A74072AFA300060
:10198000034302208A82021956E582FAC4540FF5F5
:1019900082C002121970D002740F5AF582021970B7
:1019A000AA0CAB0DAC0EAD0FAE10751720EE2EFECF
:1019B000ED235401FF4206EA2AFAEB33FBEC33FC39
:1019C000ED33FDC3EE95134008EEC39513FE4302BD
:1019D00001D517D98A0C8B0D8C0E8D0F8E102278A5
:1019E0007FE624D075F00AA4FA7880E624D02AFA9B
:1019F000787E8603BB2D04C3E49AFA751301C3E411
:101A000064808AF063F08095F050297517038A038B
:101A100074F62517401C0513E517142473F8E51711
:101A20002473F98704A604772E1BEBFA60040517CC
:101A300080DE8B02EA30E70D787486037875A603A2
:101A40007874762E0AE515600AE51504FB2513F572
:101A5000138005300B02051378738603E4BB2D0158
:101A600004FB70062006033007020513300403024E
:101A70001B26300557EB600C75822DC002121956DB
:101A8000D002801C30060C75822BC002121956D071
:101A900002800D30070A758220C002121956D0024A
:101AA00078748604BC2E0C758230C002121956D090
:101AB000021514AC141514C3E5139C4003021B6AF1
:101AC000758230C002121956D00280E7AC1415148A
:101AD000C3E5139C500C758220C002121956D00227
:101AE00080EA78738604BC2D0C75822DC002121911
:101AF00056D002801C30060C75822BC0021219567B
:101B0000D002800D30070A758220C002121956D00B
:101B10000278748604BC2E52758230C002121956A7
:101B2000D00215148044EB600E75822DC00212198C
:101B300056D0021514802030060E75822BC002127A
:101B40001956D0021514800F30070C758220C00280
:101B5000121956D002151478748603BB2E0C7582A8
:101B600030C002121956D0021514751701C20DE5C6
:101B7000172473F88603BB4503021C27BB2E348A47
:101B800003C3E464808BF063F08095F0500F75829E
:101B900030C003121956D0031B8B0280E48B02D293
:101BA0000DE5157038200B03021C2775822E1219C3
:101BB000568074300D278A03EB30E71FC3E464803E
:101BC0008515F063F08095F0500C758230C00312DB
:101BD0001956D00315150B8B0280DD8B02300D0ECC
:101BE000C3E464808515F063F08095F05021E5171B
:101BF0002473F886038B82C002121956D002300D6E
:101C00000EE5172473F88603BB2E02800215151506
:101C100014C3E464808515F063F08095F0400320E0
:101C20000D050517021B6FC3E464808515F063F092
:101C30008095F0500A758230121956151580E830DB
:101C4000040FAA141514EA60087582201219568030
:101C5000F122E5157003300B0D74072515FAE51414
:101C6000C39AF5148006E51424FAF5147517007864
:101C7000738602BA2B0F20060C7873762020070596
:101C80007517010514200419AA14C3E464808AF0AE
:101C900063F08095F0500A75822012195615148051
:101CA000E7C20DE5172473F88602BA00028069BA0C
:101CB000451F3000027665C3E464808515F063F04B
:101CC0008095F0500A758230121956151580E8D2A9
:101CD0000DC3E5179402E433FA7014EA700EC3E4FE
:101CE00064808515F063F08095F04003300D16E5B3
:101CF000172473F886028A82121956E51724FD50BC
:101D0000121515800E7402B51709300B0675822E58
:101D10001219560517021CA3300419AA14C3E4644F
:101D2000808AF063F08095F0500A7582201219566F
:101D3000151480E72285820A85830BE4F511F512DC
:101D4000AA18AB19AC1A8A828B838CF0122309FD76
:101D500074012AF518E43BF5198C1AEDFA700302A8
:101D600022DBBA250280030222D3C204C205C206C6
:101D7000C207C208C209C20AC20BC201C202C20320
:101D80007513007514007515FFAB18AC19AD1A8BDF
:101D9000828C838DF0122309FAA3AB82AC838B185B
:101DA0008C198D1ABA25078A8212195680928A06D2
:101DB000BE3000402E8A06EE24C6402774FFB515BB
:101DC00013E51475F00AA4FEEA24D02EF51470BFB2
:101DD000D20580BBE51575F00AA4FEEA24D02EF5E5
:101DE0001580ACBA2E0A74FFB515A4751500809F36
:101DF0008A06BE6100400E8A06EE24854007530223
:101E0000DFD2008002C200BA20028075BA2303022A
:101E10001E90BA2A03021E95BA2B02805FBA2D02C9
:101E20008055BA4202805FBA4303021EDABA440305
:101E3000022015BA450302202FBA460302202BBA0E
:101E40004703022033BA4903022015BA4C02803BF3
:101E5000BA4E03022037BA4F0302201CBA500302C5
:101E60001FAEBA5303021EFEBA5503022021BA5810
:101E700003022026022061D204021D8FD206021D19
:101E80008FD207021D8FD209021D8FD20A021D8F29
:101E9000D20B021D8F74FFB5152030090BE51B1402
:101EA000F8881B8614021D8FE51B24FEF8881B860C
:101EB00006088607188E14021D8F30090BE51B14C7
:101EC000F8881B8615021D8FE51B24FEF8881B86EB
:101ED00006088607188E15021D8F30090AE51B14A7
:101EE000F8881B8602800FE51B24FEF8881B8603FA
:101EF000088604188B028A82121956022066E51B96
:101F000024FDF8881B860308860408860518188BAC
:101F10000C8C0D8D0E8B828C838DF0122444AB8241
:101F2000AC838B1674FFB5150385161520041DC3ED
:101F3000E51695145016E514C39516F514AB141553
:101F400014EB600875822012195680F1850C828589
:101F50000D83850EF0122309FBFA6029AB151515C8
:101F6000C3E464808BF063F08095F050188A82128D
:101F70001956AB0CAC0DAD0E0BBB00010C8B0C8CD1
:101F80000D8D0E80C7200403022066C3E51695144C
:101F90004003022066E514C39516F514AB1415141E
:101FA000EB700302206675822012195680EEE51B45
:101FB00024FDF8881B860308860408860518188BFC
:101FC0000C8C0D8D0EE50EFB30E7047A438013EB8D
:101FD000546060047A50800AEB30E6047A4980024B
:101FE0007A588A82C00212195675823A12195675A9
:101FF0008230121956758278121956D002BA4902E7
:10200000800BBA50028006850D82121989850C82D8
:102010001219898051D20875130A804A75130880F5
:102020004575130A8040751310803BD2018037D26A
:10203000028033D203802FE51B24FDF8881B860322
:1020400008860408860518188B0C8C0D8D0E8B8263
:102050008C838DF0E51112164FA3E51212164F80F6
:10206000058A82121956200106200203300370E50A
:102070001B24FCF8881B860308860408860508864E
:10208000061818188B0C8C0D8D0E8E0FE50CE50DB7
:10209000E50EE50F8B828C838DF0EE12232574FF05
:1020A000B51503751506300327747F550FFB8B108C
:1020B000E510EB2BFB8B10E50E30E70674014510A5
:1020C000F510E51024684006749925104002D202EC
:1020D000300206121C52021D401219DF021D40E59B
:1020E000137003021D407B7830092BE51B14F88820
:1020F0001BE6FC3395E0FDFEFF8C0C8D0D8E0E8FE4
:102100000F20085EAC0C7D007E007F008C0C8D0DD6
:102110008E0E8F0F804C300A1FE51B24FCF8881BA5
:1021200086040886050886060886071818188C0C89
:102130008D0D8E0E8F0F802AE51B24FEF8881B86DE
:102140000408860518ED3395E0FEFF8C0C8D0D8E8E
:102150000E8F0F20080CAC0CAD0D7E007F008E0E94
:102160008F0F300B43E50C450D450E450F6039745C
:1021700008B5130C758230C003121956D00380289D
:102180007410B51323758230C003121956D0033072
:10219000000C758278C003121956D003800A75822C
:1021A00058C003121956D003300825AC0CAD0DAE43
:1021B0000EE50FFF30E717C3E49CFCE49DFDE49EB1
:1021C000FEE49FFF8C0C8D0D8E0E8F0F8002C208D7
:1021D000751600D20C8B00751000C0001219A0D02B
:1021E00000200C0DE510C4FCE6FD4CF618880380B9
:1021F00002A6100516B20CE50C450D450E450F70F4
:10220000D68803E514700375140120051A200417FD
:10221000E51604FCC39514500E758220C0031219F4
:1022200056D003151480E930080E75822DC00312B4
:102230001956D00315148024E516602030060E755B
:10224000822BC003121956D0031514800F30070CCF
:10225000758220C003121956D003151420041EAC39
:10226000141514C3E5169C50273005047C308002F9
:102270007C208C82C003121956D00380E2C3E5167D
:1022800095145009E514C39516F5148003751400D0
:102290008B00AB161516EB6022B20C200C0A08E678
:1022A000C4540FFB8B1080078603740F5BF51085F9
:1022B0001082C000121970D00080D7200403021DC4
:1022C00040AB141514EB7003021D407582201219E7
:1022D0005680EE8A82121956021D4085118285129F
:1022E0008322AA82BA0A0810990280FB75990D1000
:1022F000990280FB8A9922AA82AB83A2F73392D1FA
:102300006002D2F7F582ACF02220F71430F6148880
:1023100083A88220F507E6A88375830022E280F770
:10232000E49322E022C0E0F84582458345F070093D
:10233000F5F0FBFCFDFE0223F3E823A2F792E0F8A0
:10234000A982AA83D2F7ABF07C007E07C37497986A
:10235000404074FF2EFE740A89F0A4F985F082745F
:102360000A8AF0A4FA85F083740A8BF0A4FB740542
:1023700029F9EA3582FAEB3583FB740035F0FCC3AA
:10238000EC13FCEB13FBEA13FAE913F908EC70EF1A
:1023900080BAE8C3947FF88B838EF0E4FBFCFDFEEB
:1023A000FF08C3E933F9EA33FAE58333F583EB3BFE
:1023B000D4FBEC3CD4FCED3DD4FDEE3ED4FEEF3F2F
:1023C000D4FF602D05F074052BD4FBE43CD4FCE471
:1023D0003DD4FDE43ED4FEE43FD4FF758204C3EF58
:1023E00013FFEE13FEED13FDEC13FCEB13FBD58294
:1023F000EDD8AF7873D0E020E704762B8002762DFD
:10240000087906E7C4540F4430F608B90603762E5F
:1024100008E7540F4430F60819B902E7764508E595
:10242000F020E704762B8004762DF4040875F00A7A
:10243000844430F608E5F04430F608E4F690007382
:1024400075F04022AA82AB83ACF07D007E008A82C8
:102450008B838CF0122309FFA3AA82AB83EF600762
:102460000DBD00EA0E80E78D828E83220000000001
:00000001FF
