:0300000002022DCC
:03000B000200569A
:03002B000201507F
:10002E00C0F9A4B0999282F88090FF7A5A79FA7842
:10003E00FAD8FED9FADAF6227A5A795A785AD8FECE
:10004E00D9FADAF62202010F758C93758A81C0D027
:10005E00C0E0C083C08220E83A20E9E90530E530EF
:10006E00B46430753000E5312401D4F531B4602329
:10007E00753100E5322401D4F532B46016753200C4
:10008E00E5332401D4F533B4120312032FB4130352
:10009E007533012021033021062020093020213024
:1000AE00200320201BE5368533F0B5F013E53585AA
:1000BE0032F0B5F00BE5348531F0B5F00312035193
:1000CE0012032190002EE531540F93F593E531C4C0
:1000DE00540F93F594E532540F93F58EE532C454D4
:1000EE000F93F58FE533540F93F596E53320E40225
:1000FE0074A0C4540F93F597D082D083D0E0D0D0A3
:10010E003212032890002EE534540F93F593E53404
:10011E00C4540F93F594E535540F93F58EE535C41D
:10012E00540F93F58FE536540F93F596E53620E48C
:10013E000274A0C4540F93F597D082D083D0E0D030
:10014E00D032C0D0C0E0C083C08230EB0820EB00BC
:10015E001203578005120360C22230EC0320EC021A
:10016E008005C22212044130ED0320ED09C2CF30CA
:10017E002271B280806DC22212040912003912005F
:10018E0039E5312401D4F531B46003753100120024
:10019E0039120039E5312401D4F531B460037531DB
:1001AE0000120039120039E5312401D4F531B46062
:1001BE0003753100120039120039E5312401D4F5EE
:1001CE0031B46003753100120039120039E5312463
:1001DE0001D4F531B46003753100D222C2CF302282
:1001EE0002B280D082D083D0E0D0D032758911C2D5
:1001FE008CC28D758C93758A81D28CD2A922C28EB7
:10020E00C28F758D93758B81D28ED2AB2275C8003D
:10021E00C2CAC2CF75CBFF75CA93D2CAD2AD2275F0
:10022E00817F120354759A01D280D220D2211203FB
:10023E0021D2DBC2D912036975DAFFC2D8740C124F
:10024E00037474381203747401120374792875E8F8
:10025E0000759500759E0075F800753100753200B9
:10026E007533127534007535007536121201FA1297
:10027E00020C12021BD2AFC2E930E80320E808C21A
:10028E00E830E9F320E943D2E830EA0520EAFDB28E
:10029E002020FB1030FBFDE5332401D4F533B413DD
:1002AE000375330120FA1030FAFDE5322401D4F53E
:1002BE0032B4600375320120F95630F9FDE5312470
:1002CE0001D4F531B46049753101D2E912032830F9
:1002DE00EA0520EAFDB22120FB1030FBFDE53624B5
:1002EE0001D4F536B4130375360120FA1030FAFD39
:1002FE00E5352401D4F535B4600375350020F910C9
:10030E0030F9FDE5342401D4F534B46003753400BE
:10031E0002028520200E3020122220211830211CAE
:10032E0022B220227591FF759188227591FF7591E9
:10033E000C22B221227591FF759188227591FF755D
:10034E00910C22D22222C22222759A01D2EB1203E2
:10035E009A22759A00C2EB1203D222789500000001
:10036E00000000D8F822F5D9C2DA0000D2D9000078
:10037E0000000000C2D9020369F5D9D2DA0000D21A
:10038E00D9000000000000C2D9020369120369D926
:10039E00FB74801203747441120387746C1203870A
:1003AE0074611203877472120387746D120387745B
:1003BE0020120387744F120387746E120387742002
:1003CE0012038722120369D9FB74801203747441DD
:1003DE00120387746C12038774611203877472128E
:1003EE000387746D1203877420120387744F1203F0
:1003FE008774661203877466120387120369D9FB2A
:10040E0074801203747453120387746E120387740C
:10041E006F120387746F120387747A1203877465E1
:10042E0012038774641203877420120387742012D8
:10043E00038722120369D9FB74801203747453125A
:10044E0003877474120387746F1203877470120318
:10045E00877470120387746512038774641203879E
:10046E00742012038774201203871200391200467B
:01047E00225B
:00000001FF
