:03000000021701E3
:03000B000219A730
:03001B000219F0D7
:10001E00C0E0C0D0C000E4F537F538F5397810E50A
:10002E0032A2E7E53133F531E53233F532E53735D6
:10003E0037D4F537E5383538D4F538E5393539D490
:10004E00F539D8DBD000D0D0D0E022C0E0C0D0C08F
:10005E0000E4F53AF53BF53C7810E532A2E7E531E0
:10006E0033F531E53233F532E53A353AD4F53AE542
:10007E003B353BD4F53BE53C353CD4F53CD8DBD0A9
:10008E0000D0D0D0E022C0E0C0D0C000E4F53DF5F5
:10009E003EF53F7810E532A2E7E53133F531E53232
:1000AE0033F532E53D353DD4F53DE53E353ED4F5EF
:1000BE003EE53F353CD4F53FD8DBD000D0D0D0E084
:1000CE0022C0E0C0D0C000E4F540F541F542781002
:1000DE00E532A2E7E53133F531E53233F532E5406D
:1000EE003540D4F540E5413541D4F541E542354240
:1000FE00D4F542D8DBD000D0D0D0E02213C0D0301F
:10010E00E70224D030E30224FDD0D022C0E0C0D0DC
:10011E00C000C037C038C0397810C3E53912010AA3
:10012E00F539E53812010AF538E53712010AF537C7
:10013E00E53213F532E53113F531D8DED039D0384A
:10014E00D037D000D0D0D0E022C0E0C0D0E53125ED
:10015E0033F531E5323534F532D0D0D0E022C0E07F
:10016E00C0D0C3E5319533F531E5329534F532D053
:10017E00D0D0E022C0E0C0D0C3E5319533E5329552
:10018E00349200D0D0D0E022C0E0C0D0C3E5339589
:10019E0031E53495329200D0D0D0E022C0E0C0D00C
:1001AE00C200C3E53395317008E53495327002D242
:1001BE0000D0D0D0E0221201AA2000030201962224
:1001CE001201AA20000302018222C0E0C0F0C0D0BA
:1001DE00C000C001E5318533F0A4F8A9F0E5328501
:1001EE0033F0A429F9E435F0FAE5318534F0A42989
:1001FE00F989328831D001D000D0D0D0F0D0E022B1
:10020E00C0E0C0F0C0D0C000C001C002C003788002
:10021E007A087B00EB48FBF5F0A4C39531F9E5F0C5
:10022E00953249600D50028004E8F45BFBE803F858
:10023E00DAE28B31753200D003D002D001D000D07B
:10024E00D0D0F0D0E022C0E0C0D0C000C001C002CB
:10025E007A10E4F8F9C3E53133F531E53233F5328E
:10026E00E833F8E933F9C3E89533E99534400BE800
:10027E009533F8E99534F9433101DAD9D002D0013A
:10028E00D000D0D0D0E02285313385323422E53112
:10029E00C533F531E532C534F5322275310075328C
:1002AE0000753700753800753900753A00753B00DA
:1002BE00753C00753D0075330012035B1203881206
:1002CE0003CA8564441208B31203E112032622C046
:1002DE00E079007A08E833F89281D282A280E9337D
:1002EE00F9C282DAF0D0E0227B05DBFE22C28378EF
:1002FE00011202DDE5F0C454F0D2E7F81202DDE996
:10030E005403FF78551202DDE9FED28322E4936096
:10031E0006120353A380F622C0E0E49016D7E53808
:10032E00540F600493120353E537C4540F93120312
:10033E0053E537540F931203539016E17400931242
:10034E000353D0E0223099FDC299F5992275F00140
:10035E00C0311202FB8F328E317533147534001298
:10036E0001D8753334753400120254753303753465
:10037E000012016C853160D0312275F000C031124F
:10038E0002FB8F328E3175333E7534001201D8ACBC
:10039E00328F328E3175333F7534001201D8AD3243
:1003AE008C317532008D337534001201577533124E
:1003BE0075340112016C853162D03122C031C0E03A
:1003CE007400E5602562F56485643112001ED0E08C
:1003DE00D031229016CCE537540F93F591E537C402
:1003EE00540F93F592E538540F93F5932275E80068
:1003FE00759500759E0075F800C200854431753301
:10040E00E41201C420000330000E74FFF5E874FFFF
:10041E00F595759E03020648C2008544317533D8A2
:10042E001201C420000330000E74FEF5E874FFF5CF
:10043E0095759E03020648C2008544317533CC1271
:10044E0001C420000330000E74FCF5E874FFF5952E
:10045E00759E03020648C2008544317533C01201F1
:10046E00C420000330000E74F8F5E874FFF595759E
:10047E009E03020648C2008544317533B41201C48E
:10048E0020000330000E74F0F5E874FFF595759EAC
:10049E0003020648C2008544317533A81201C420F8
:1004AE00000330000E74E0F5E874FFF595759E03B9
:1004BE00020648C20085443175339C1201C42000E7
:1004CE000330000E74C0F5E874FFF595759E0302B7
:1004DE000648C2008544317533901201C4200003D2
:1004EE0030000E7480F5E874FFF595759E030206D4
:1004FE0048C2008544317533841201C42000033094
:10050E00000E7400F5E874FFF595759E030206481B
:10051E00C2008544317533781201C42000033000C7
:10052E000E7400F5E874FEF595759E03020648C23A
:10053E000085443175336C1201C420000330000E67
:10054E007400F5E874FCF595759E03020648C2002A
:10055E008544317533601201C420000330000E74DF
:10056E0000F5E874F8F595759E03020648C20085FD
:10057E0044317533541201C420000330000E740050
:10058E00F5E874F0F595759E03020648C2008544A1
:10059E00317533481201C420000330000E7400F58B
:1005AE00E874E0F595759E03020648C20085443155
:1005BE0075333C1201C420000330000E7400F5E8C0
:1005CE0074C0F595759E03020648C20085443175C8
:1005DE0033301201C420000330000E7400F5E874AD
:1005EE0080F595759E03020648C200854431753329
:1005FE00241201C420000330000C7400F5E8F595B8
:10060E00759E03020648C2008544317533181201E7
:10061E00C42000033000237400F5E8F595759E02A2
:10062E00C20085443175330C1201C4200003300022
:10063E00097400F5E8F595759E00221208E7D9FBBE
:10064E00228557311200591216ED20FB0F30FBFD9B
:10065E00E557240AF557B4FF03755A0020FA0F30F8
:10066E00FAFDE5572403F557B4FF0375570020F93B
:10067E000F30F9FDE5572401F557B4FF0375570008
:10068E0085573112091820E8B82220FB1630FBFDE1
:10069E00E56F243CF56FE5302401D4F530B46003EA
:1006AE0075300020FA1330FAFDE56F2403F56FE57F
:1006BE00592405D4F559B4600020F91630F9FDE53A
:1006CE006F2401F56FE5592401D4F559B460037513
:1006DE005900120A3220E9B222855A3112009412C0
:1006EE0016ED20FB0F30FBFDE55A240AF55AB4FF38
:1006FE0003755A0020FA0F30FAFDE55A2403F55A15
:10070E00B4FF03755A0020F90F30F9FDE55A2401A4
:10071E00F55AB4FF03755A00855A31120B5320EA6D
:10072E00B82220FB1530FBFDE56D243CF56DE55D33
:10073E002401F55DB46003755D0020FA1630FAFDF4
:10074E00E56D2403F56DE55C2405D4F55CB460031A
:10075E00755C0020F91630F9FDE56D2401F56DE5A7
:10076E005C2401D4F55CB46003755C00120C682047
:10077E00EBB022855E311200CF1216ED20FB0F304A
:10078E00FBFDE55E240AF55EB4FF03755E0020FAFC
:10079E000F30FAFDE55E2403F55EB4FF03755E00CF
:1007AE0020F90F30F9FDE55E2401F55EB4FF037507
:1007BE005E00855E31120D8920ECB822758901C26A
:1007CE008CC28D758C93758A7FD28CD2A922758935
:1007DE0001C28EC28F758DEA758B4DC282D28ED2BA
:1007EE00AB759852227401F551B2F9B2FA1208B3F0
:1007FE007400F551B2F9B2FA1208B37401F551B2A0
:10080E00F9B2FA1208B37400F551B2F9B2FA12083D
:10081E00B37401F551B2F9B2FA1208B37400F5517E
:10082E00B2F9B2FA1208B37401F551B2F9B2FA1272
:10083E0008B37400F551B2F9B2FA1208B37401F5A7
:10084E0051B2F9B2FA1208B37400F551B2F9B2FA14
:10085E001208B37401F551B2F9B2FA1208B374006A
:10086E00F551B2F9B2FA227401F551B2F9B2FA1297
:10087E0008B37400F551B2F9B2FA227401F551B20F
:10088E00F9B2FA1208B37400F551B2F9B2FA1208BD
:10089E00B37401F551B2F9B2FA1208B37400F551FE
:1008AE00B2F9B2FA227A2D79FA78FAD8FED9FADAB2
:1008BE00F8227AB479FA78FAD8FED9FADAF8227AE6
:1008CE005A79FA78FAD8FED9FADAF8227A5A79FAF7
:1008DE0078FAD8FED9FADAF82278950000000000EE
:1008EE0000D8F822F5D9C2DA0000D2D900000000F3
:1008FE000000C2D90208E7F5D9D2DA0000D2D90039
:10090E000000000000C2D90208E71208E7D9FB7404
:10091E00801208F274531209057465120905747475
:10092E001209057420120905745212090574611218
:10093E000905746D120905747012090574201209E7
:10094E00057474120905746F1209057420120905D5
:10095E007453120905746F12090574611209057436
:10096E006B12090574641209057465120905746623
:10097E001209057467120905746812090574691263
:10098E000905746A120905746B120905746C120953
:10099E0005746D120905746E120905746F1209053E
:1009AE0074701209057471120905747212090574B6
:1009BE00731209057474120905747512090574769B
:1009CE0012090574771209057478120905747912E3
:1009DE000905747A12090574791209059016E3E572
:1009EE003B540F93120905E53A54F00303030393A6
:1009FE00120905E53A540F931209057420120905E0
:100A0E007443120905742012090574201209057425
:100A1E00201209057420120905742012090574208C
:100A2E00120905221208E7D9FB74801208F27453DA
:100A3E0012090574651209057474120905742012E1
:100A4E0009057453120905746F12090574611209B0
:100A5E0005746B12090574201209057454120905E8
:100A6E007469120905746D1209057465120905740D
:100A7E0020120905742012090574201209057464E8
:100A8E001209057465120905746612090574671258
:100A9E00090574681209057469120905746A120948
:100AAE0005746B120905746C120905746D12090533
:100ABE00746E120905746F120905747012090574AB
:100ACE007112090574721209057473120905747492
:100ADE0012090574751209057476120905747712D8
:100AEE00090574781209057479120905747A1209C8
:100AFE000574791209059016E37420120905742005
:100B0E0012090574201209057420120905742012A9
:100B1E0009057420120905E53054F003030303930D
:100B2E00120905E530540F93120905743A1209059E
:100B3E00E55954F00303030393120905E559540FC5
:100B4E0093120905221208E7D9FB74801208F27479
:100B5E00531209057465120905747412090574207F
:100B6E001209057450120905746512090574611293
:100B7E000905746B120905742012090574541209C3
:100B8E00057465120905746D120905747012090554
:100B9E0074201209057420120905742012090574B7
:100BAE0064120905746512090574661209057467E5
:100BBE0012090574681209057469120905746A121E
:100BCE000905746B120905746C120905746D12090E
:100BDE0005746E120905746F1209057470120905F9
:100BEE007471120905747212090574731209057471
:100BFE007412090574751209057476120905747755
:100C0E0012090574781209057479120905747A129D
:100C1E00090574791209059016E3E53E540F9312F7
:100C2E000905E53D54F00303030393120905E53D61
:100C3E00540F931209057420120905744312090505
:100C4E007420120905742012090574201209057406
:100C5E00201209057420120905221208E7D9FB7427
:100C6E00801208F274531209057465120905747422
:100C7E0012090574201209057452120905746512C1
:100C8E0009057466120905746F1209057477120945
:100C9E0005742012090574541209057469120905A8
:100CAE00746D120905746512090574201209057414
:100CBE00201209057420120905746512090574665F
:100CCE001209057467120905746812090574691210
:100CDE000905746A120905746B120905746C120900
:100CEE0005746D120905746E120905746F120905EB
:100CFE007470120905747112090574721209057463
:100D0E007312090574741209057475120905747647
:100D1E00120905747712090574781209057479128F
:100D2E000905747A12090574791209059016E3748F
:100D3E002012090574201209057420120905742069
:100D4E0012090574201209057420120905E55D5477
:100D5E00F00303030393120905E55D540F93120983
:100D6E0005743A120905E55C54F00303030393126C
:100D7E000905E55C540F93120905221208E7D9FB09
:100D8E0074801208F2745312090574651209057401
:100D9E007412090574201209057443120905746F43
:100DAE00120905746F120905746C12090574691223
:100DBE000905746E1209057467120905742012096B
:100DCE000574541209057465120905746D1209052E
:100DDE00747012090574641209057465120905749C
:100DEE00661209057467120905746812090574699B
:100DFE00120905746A120905746B120905746C12D6
:100E0E000905746D120905746E120905746F1209C5
:100E1E0005747012090574711209057472120905B0
:100E2E007473120905747412090574751209057428
:100E3E00761209057477120905747812090574790A
:100E4E00120905747A12090574791209059016E3D0
:100E5E00E541540F93120905E54054F003030303D3
:100E6E0093120905E540540F9312090574201209D7
:100E7E000574431209057420120905742012090520
:100E8E0074201209057420120905742012090574C4
:100E9E0020120905221208E7D9FB74801208F27499
:100EAE00491209057464120905746C1209057465FA
:100EBE0012090574201209057420120905742012F6
:100ECE0009057420120905742012090574201209EF
:100EDE0005742012090574201209057420120905E3
:100EEE007420120905742012090574201209057464
:100EFE006412090574651209057466120905746792
:100F0E0012090574681209057469120905746A12CA
:100F1E000905746B120905746C120905746D1209BA
:100F2E0005746E120905746F1209057470120905A5
:100F3E00747112090574721209057473120905741D
:100F4E007412090574751209057476120905747701
:100F5E0012090574781209057479120905747A124A
:100F6E00090574791209059016E3E538540F9312AA
:100F7E000905E53754F00303030393120905E5371A
:100F8E00540F9312090574201209057443120905B2
:100F9E007420120905E54A54F00303030393120962
:100FAE0005E54A540F93120905743A120905E549ED
:100FBE0054F00303030393120905E549540F9312EA
:100FCE000905221208E7D9FB74801208F274521236
:100FDE0009057461120905746D1209057470120900
:100FEE000574201209057474120905746F1209052F
:100FFE0074201209057453120905746F12090574D1
:10100E0061120905746B120905742012090574200A
:10101E001209057420120905742012090574641250
:10102E0009057465120905746612090574671209BB
:10103E000574681209057469120905746A120905A6
:10104E00746B120905746C120905746D120905741E
:10105E006E120905746F1209057470120905747108
:10106E00120905747212090574731209057474124B
:10107E00090574751209057476120905747712093B
:10108E000574781209057479120905747A12090526
:10109E0074791209059016E3E538540F9312090579
:1010AE00E53754F00303030393120905E537540F94
:1010BE009312090574201209057443120905742050
:1010CE00120905E54A54F00303030393120905E5DB
:1010DE004A540F93120905743A120905E54954F062
:1010EE000303030393120905E549540F93120905EF
:1010FE00221208E7D9FB74801208F2745312090504
:10110E00746F1209057461120905746B1209057466
:10111E002012090574201209057420120905742085
:10112E001209057420120905742012090574201283
:10113E00090574201209057420120905742012097C
:10114E00057420120905742012090574641209052C
:10115E00746512090574661209057467120905741F
:10116E00681209057469120905746A120905746B0F
:10117E00120905746C120905746D120905746E124C
:10118E000905746F1209057470120905747112093C
:10119E000574721209057473120905747412090527
:1011AE00747512090574761209057477120905749F
:1011BE00781209057479120905747A120905747981
:1011CE001209059016E3E538540F93120905E53719
:1011DE0054F00303030393120905E537540F9312DA
:1011EE0009057420120905744312090574201209A9
:1011FE0005E54A54F00303030393120905E54A5427
:10120E000F93120905743A120905E54954F00303C8
:10121E00030393120905E549540F9312090522128F
:10122E0008E7D9FB74801208F27452120905746132
:10123E00120905746D1209057470120905742012D5
:10124E0009057474120905746F12090574201209C8
:10125E0005745012090574651209057461120905A9
:10126E00746B120905742012090574201209057495
:10127E00201209057420120905746412090574659B
:10128E00120905746612090574671209057468124D
:10129E0009057469120905746A120905746B12093D
:1012AE0005746C120905746D120905746E12090528
:1012BE00746F1209057470120905747112090574A0
:1012CE007212090574731209057474120905747586
:1012DE0012090574761209057477120905747812CD
:1012EE0009057479120905747A12090574791209BF
:1012FE00059016E3E538540F93120905E53754F0BF
:10130E000303030393120905E537540F93120905DE
:10131E00742012090574431209057420120905E59B
:10132E004A54F00303030393120905E54A540F933D
:10133E00120905743A120905E54954F00303030333
:10134E0093120905E549540F93120905221208E775
:10135E00D9FB74801208F2745212090574651209D1
:10136E00057466120905746C120905746F1209056D
:10137E007477120905742012090574201209057478
:10138E002012090574201209057420120905742013
:10139E001209057420120905742012090574201211
:1013AE000905742012090574641209057465120981
:1013BE000574661209057467120905746812090529
:1013CE007469120905746A120905746B12090574A1
:1013DE006C120905746D120905746E120905746F8D
:1013EE0012090574701209057471120905747212CE
:1013FE0009057473120905747412090574751209BE
:10140E0005747612090574771209057478120905A8
:10141E007479120905747A12090574791209059006
:10142E0016E3E538540F93120905E53754F003031C
:10143E00030393120905E537540F9312090574201F
:10144E0012090574431209057420120905E54A5460
:10145E00F00303030393120905E54A540F9312098F
:10146E0005743A120905E54954F003030303931278
:10147E000905E549540F93120905221208E7D9FB15
:10148E0074801208F27443120905746F1209057400
:10149E006F120905746C1209057469120905746ED0
:1014AE0012090574671209057420120905742012B9
:1014BE0009057420120905742012090574201209F9
:1014CE0005742012090574201209057420120905ED
:1014DE0074201209057464120905746512090574E5
:1014EE006612090574671209057468120905746994
:1014FE00120905746A120905746B120905746C12CF
:10150E000905746D120905746E120905746F1209BE
:10151E0005747012090574711209057472120905A9
:10152E007473120905747412090574751209057421
:10153E007612090574771209057478120905747903
:10154E00120905747A12090574791209059016E3C9
:10155E00E538540F93120905E53754F003030303DE
:10156E0093120905E537540F9312090574201209D9
:10157E000574431209057420120905E54A54F00357
:10158E0003030393120905E54A540F9312090574D8
:10159E003A120905E54954F00303030393120905B2
:1015AE00E549540F93120905221208E7D9FB7480FE
:1015BE001208F27443120905746F120905746E1243
:1015CE00090574741209057465120905746E120901
:1015DE000574741209057473120905742012090535
:1015EE007443120905746F120905746F120905749C
:1015FE006C120905746512090574641209057420CC
:10160E0012090574641209057465120905746612CF
:10161E0009057467120905746812090574691209BF
:10162E0005746A120905746B120905746C120905AA
:10163E00746D120905746E120905746F1209057422
:10164E00701209057471120905747212090574730A
:10165E00120905747412090574751209057476124F
:10166E00090574771209057478120905747912093F
:10167E0005747A12090574791209059016E3E53896
:10168E00540F93120905E53754F003030303931225
:10169E000905E537540F93120905742012090574D4
:1016AE00431209057420120905E54954F00303039A
:0E16BE000393120905E549540F931209052202
:1016CC00C0F9A4B0999282F88090FF303132333453
:1016DC0035363738390A0D30313233343536373800
:1016EC00399016CCE537540F93E537C4540F93E576
:1016FC0038540F932275817F75E800759500759E9F
:10170C000075F80075540075470075460075440067
:10171C00759A7E759B01759C20D283D284C2857488
:10172C0000F553F551C2867547007556001207CA6D
:10173C001207DCC282C2CA75C83075CBFF75CAF7F6
:10174C00D2CA759852D2AF12001E1216ED7557966A
:10175C008557311200591216ED755AC8855A311237
:10176C0000941216ED755E3C855E311200CF121698
:10177C00ED755500754900754A00755900753000B6
:10178C00755C00755D00756D1E756F467571E6C2F2
:10179C0001C202D2DBC2D91208E775DAFFC2D874D3
:1017AC000C1208F274381208F274011208F21206C4
:1017BC004974801208F21202A91203FBE554B4001A
:1017CC004E1203FB120EA330E80320E81B30E90392
:1017DC0020E91830EA0320EA1530EB0320EB123035
:1017EC00EC0320EC0F02180312064F120698120697
:1017FC00E712073012078175470020FB0F30FBFD05
:10180C007566007567007554011208750217C2B42D
:10181C0001461203FB120FD1055520FA1575540021
:10182C00754900754A00756600756700755500129C
:10183C00088930E908D2027554021208757547649C
:10184C00E557C39544500E756600756700D20212B9
:10185C0008757554020217C2B4023A1203FB121037
:10186C00FF20FA15755400754900754A007555002E
:10187C0075660075670012088930EA067554031204
:10188C0008757547147400B56F08C20275540312BD
:10189C0008750217C2B4033E1203FB12122D20FA74
:1018AC0015755400754900754A007555007566002C
:1018BC0075670012088930EB08D2017554041208C0
:1018CC0075754764E55AC395445008D201755404A4
:1018DC001208750217C2B4044C1203FB12135B20DE
:1018EC00FA15755400754900754A007566007567E0
:1018FC000075550012088930EC06755405120875F0
:10190C00754714E571C39544500BC201755405120B
:10191C0008750217C27400B56D08C2017554051222
:10192C0008750217C2B4053D1203FB12148920FA84
:10193C0015755400754900754A0075660075670089
:10194C0075550012088930ED03755406754700E58E
:10195C0044C3955E500C7566007567001207F375ED
:10196C0054060217C2B406FD1203FB1215B7120877
:10197C00DA1208DA1208DA1208DA30FA157554009D
:10198C00754900754A00756600756700755500123B
:10199C000889754700740AC30217C2758C93758A3F
:1019AC007FC0D0C0E0C083C082E555602E0548E5FD
:1019BC0048B46427754800E5492401D4F549300141
:1019CC0002156D300202156FB46010754900E54ABE
:1019DC002401D4F54AB46003754A00D082D083D078
:1019EC00E0D0D032C0E07401B55108B2A5758DEAD3
:1019FC00758B4D7464B54707D28675560080237479
:101A0C0000B54707C2867556008017E556B4000628
:101A1C00D2860556800CC2860556E556B40503756C
:051A2C005600D0E0327D
:00000001FF
